S00E000053414D4537302E7372656389
S214400000A82D4020010C4000B10C4000B10C40002F
S214400010B10C4000B10C4000B10C400000000000A4
S214400020000000000000000000000000B10C40008E
S214400030B10C400000000000B10C4000B10C400084
S214400040B10C4000B10C4000B10C4000B10C400077
S214400050B10C4000B10C4000B10C4000B10C400067
S214400060B10C400000000000B9074000D107400036
S214400070E9074000B10C4000B10C4000B10C400014
S2144000800108400019084000B10C4000B10C400087
S214400090B10C4000B10C4000B10C4000B10C400027
S2144000A0B10C4000B10C4000B10C4000B10C400017
S2144000B0B10C4000B10C4000B10C4000B10C400007
S2144000C0B10C4000B10C4000B10C4000B10C4000F7
S2144000D000000000B10C400000000000B10C4000E1
S2144000E0B10C4000B10C4000B10C4000B10C4000D7
S2144000F0B10C4000B10C4000B10C4000B10C4000C7
S214400100B10C4000B10C4000B10C4000B10C4000B6
S214400110B10C40000000000000000000000000009D
S214400120B10C4000B10C4000B10C4000B10C400096
S214400130B10C400000000000B10C4000B10C400083
S21440014010B5054C237833B9044B13B10448AFF3CC
S21440015000800123237010BDF40C402000000000F6
S214400160A42840000C4B43B10C480D4910B5AFF3E2
S21440017000800C48036823B910BD0A48036833B9A9
S2144001807047094B002BF7D0BDE810401847064B88
S214400190002BF5D0184700BF00000000A428400000
S2144001A0F80C4020A42840000000000080B582B033
S2144001B000AF78607B68072B31D801A252F823F055
S2144001C01D024000E1014000E9014000F10140000D
S2144001D0F9014000010240000902400013024000BD
S2144001E00020114B98471AE001200F4B984716E025
S2144001F000200E4B984712E010200C4B98470EE01C
S21440020020200A4B98470AE03E210020084B98479A
S21440021005E03E210120064B984700E000BF00BFA6
S2144002200837BD4680BD00BF310940009D094000EB
S2144002300D0A400080B582B000AF78607B68072B1F
S21440024026D801A252F823F0690240006D02400011
S2144002506D0240007F0240007F0240007F02400067
S2144002607F0240007F024000012312E00B4B98477C
S2144002700346002B14BF01230023DBB209E0084BE2
S21440028098470346002B14BF01230023DBB200E04F
S214400290002318460837BD4680BD00BF69094000A8
S2144002A0850A400080B483B000AF78607B68072B37
S2144002B025D801A252F823F0D9024000DF024000C0
S2144002C0E5024000EB024000EF024000F30240002F
S2144002D0F7024000FB0240004FF4FA4310E04FF4B0
S2144002E000430DE04FF400430AE0084B08E0084B9B
S2144002F006E0084B04E0074B02E0064B00E0002314
S21440030018460C37BD465DF8047B704700093D0033
S21440031000127A00001BB70080B582B000AF0346DB
S214400320FB7100BFFB791846054B9847034683F0A0
S2144003300103DBB2002BF5D100BF0837BD4680BDB8
S2144003403502400080B586B000AFF8607A603B600A
S2144003500B46FB727B68002B07D13B68002B04D111
S214400360FB684FF470021A6019E0FB7A18460E4B91
S214400370984702467B68B2FBF3F37B617B693A6839
S21440038002FB03F37B613B68013B1A04074B1340B7
S2144003907A68D2B2134343F47C52FB681A6000BFBB
S2144003A01837BD4680BD00BFA50240000000FF07CD
S2144003B080B582B000AF786039603B68002B08D1CA
S2144003C0094B9847094A7B681B6843F00053936281
S2144003D005E0064A7B681B6843F48033D36100BF60
S2144003E00837BD4680BD00BFA10A400000060E404B
S2144003F080B582B000AF78607B68002B03D1054B98
S2144004009847034602E0044B984703461846083789
S214400410BD4680BDBD0A4000D90A400080B582B0C6
S21440042000AF0346FB71FB79033B042B08D8FB79EE
S2144004301846064B9847FB791846054B984700E008
S21440044000BF00BF0837BD4680BD00BFAD014000BD
S2144004501903400080B582B000AF786000BF78686E
S214400460044B98470346002BF9D00023184608371C
S214400470BD4680BDF103400080B500AF0620054B69
S2144004809847024613469B0013449A001344184666
S21440049080BD00BFA502400080B500AF024B984724
S2144004A00346184680BD00BF7904400090B583B02F
S2144004B000AF1348134B98470620134B9847381DF8
S2144004C0192301220621114CA0473B1D0021184646
S2144004D00F4B984700200F4B984702200E4B9847EB
S2144004E000200E4B98470E4B98470E4B98470346B6
S2144004F01846044B984700BF0C37BD4690BD00BF1A
S21440050000A3E111210E40001D04400045034000B9
S214400510B10340005504400031084000AD0840009B
S214400520B90C40009904400080B485B000AFF86034
S214400530B9607A607B68002B03D0FB68BA685A665D
S21440054002E0FB68BA681A6600BF1437BD465DF81D
S214400550047B704780B483B000AF786039607B68B6
S2144005603A681A6300BF0C37BD465DF8047B704797
S21440057080B483B000AF786039607B683A685A636D
S21440058000BF0C37BD465DF8047B704780B487B02B
S21440059000AFF860B9607A60BB68B3F1405F03D0E3
S2144005A0BB68B3F1605F03D1FB689B6B7B6102E085
S2144005B0FB68DB6B7B617A697B681340002B01D15B
S2144005C0002300E0012318461C37BD465DF8047B37
S2144005D07047000080B584B000AFF860B9607A60BC
S2144005E0B968F868194B98477B6803F001031A46C8
S2144005F0B968F868164B98477B6803F00A03002BE7
S21440060003D0FB68BA681A6202E0FB68BA685A62AE
S2144006107B6803F00203002B04D0FB68BA68C3F87B
S214400620802008E07B6803F00803002B03D0FB68BB
S214400630BA68C3F88420FB68BA685A61FB68BA682F
S2144006401A6000BF1037BD4680BD00BFB9064000E7
S2144006502905400080B584B000AFF860B9607A6084
S2144006603B60B968F868124B9847BA69B968F86849
S214400670104B98473B68002B03D0FB68BA681A6556
S21440068002E0FB68BA685A657B68002B03D0FB68BB
S214400690BA681A6302E0FB68BA685A63FB68BA68CD
S2144006A01A61FB68BA681A6000BF1037BD4680BD45
S2144006B0B90640002905400080B483B000AF78609A
S2144006C039607B683A685A6400BF0C37BD465DF8AF
S2144006D0047B704780B483B000AF78607B68DB6C87
S2144006E018460C37BD465DF8047B704780B483B02F
S2144006F000AF78607B689B6C18460C37BD465DF84B
S214400700047B704780B584B000AF78603960786805
S214400710264B9847F8607868254B98470246FB6812
S2144007201340FB60FB68002B3CD00023BB6034E0EA
S214400730204ABB681B0113441A683B689A4226D17C
S2144007401C4ABB681B01134404331A68FB681340F9
S214400750002B1CD0174ABB681B0113440C331B6884
S2144007601449BA6812010A4410681249BA6812015C
S2144007700A4404321268114698470E4ABB681B0169
S214400780134404331B68DB43FA681340FB60BB68C2
S2144007900133BB60BB68062B03D8FB68002BC7D170
S2144007A000E000BF00BF1037BD4680BDD506400004
S2144007B0ED064000100D402080B500AF0A210248EB
S2144007C0024B984700BF80BD000E0E400507400014
S2144007D080B500AF0B210248024B984700BF80BD52
S2144007E000100E400507400080B500AF0C210248BF
S2144007F0024B984700BF80BD00120E4005074000E0
S21440080080B500AF10210248024B984700BF80BD1C
S21440081000140E400507400080B500AF1121024885
S214400820024B984700BF80BD00160E4005074000AB
S21440083080B483B000AF78607B68013B032B1AD846
S21440084001A252F823F000BF590840005F0840005C
S214400850670840006F08400000237B600EE04FF4BE
S21440086080737B600AE04FF440737B6006E04FF491
S21440087000737B6002E000237B6000BF0A490A4B9E
S2144008801B6B23F440727B6813430B6300BF064B1D
S2144008909B6E03F00803002BF9D000BF0C37BD4613
S2144008A05DF8047B704700BF00060E4080B485B0FC
S2144008B000AF78601D491D4B1B6B23F070027B68B0
S2144008C013430B634FF48053FB6007E0FB68002B39
S2144008D001D1012323E0FB68013BFB60134B9B6E79
S2144008E003F00803002BF1D0104A104B1B6B23F08B
S2144008F0030343F0020313634FF48053FB6007E0A7
S214400900FB68002B01D1012309E0FB68013BFB603B
S214400910064B9B6E03F00803002BF1D000231846CD
S2144009201437BD465DF8047B704700BF00060E4096
S21440093080B483B000AF78607B68012B05D107494F
S214400940064B9A68064B13438B60044B054A1A6065
S21440095000BF0C37BD465DF8047B704710180E404C
S214400960000010A5080000A580B400AF094B5B69E5
S21440097003F08003002B07D0074B9B6E03F08003E9
S214400980002B01D0012300E000231846BD465DF849
S214400990047B704710180E4000060E4080B483B0AB
S2144009A000AF78601549154B1A6A154B13430B6216
S2144009B000BF124B9B6E03F40033002BF9D00F4957
S2144009C00E4B1A6A0F4B13407A68134343F45C137A
S2144009D00B6200BF094B9B6E03F40033002BF9D02B
S2144009E00649064B1A6A084B134043F45C130B62E5
S2144009F000BF0C37BD465DF8047B704700060E40CE
S214400A00080037008FFFC8FFFFFFC8FE80B483B0E2
S214400A1000AF786039607B68002B08D01349134BD1
S214400A201B6A134A1A40134B13430B6218E00F49D4
S214400A300E4B1A6A104B13403A68120292B21A438F
S214400A400E4B13430B6200BF084B9B6E03F0010333
S214400A50002BF9D00549054B1A6A094B13430B6224
S214400A6000BF0C37BD465DF8047B704700060E405D
S214400A70FCFFC8FE02003701FCFFC8FF010037003C
S214400A800000370180B400AF044B9B6E03F4803304
S214400A901846BD465DF8047B704700BF00060E4012
S214400AA080B400AF044B4FF000529A6200BFBD4680
S214400AB05DF8047B704700BF00060E4080B400AF70
S214400AC0044B9B6E03F002031846BD465DF8047B5C
S214400AD0704700BF00060E4080B400AF044B9B6ECC
S214400AE003F040031846BD465DF8047B704700BFE0
S214400AF000060E4080B483B000AF78607B683F2B22
S214400B0001D901232FE07B681F2B13D8194B9A6914
S214400B1001217B6801FA03F31A4001217B6801FA40
S214400B2003F39A421ED0134A01217B6801FA03F36D
S214400B30136117E07B68203B7B600E4BD3F808219F
S214400B4001217B6801FA03F31A4001217B6801FA10
S214400B5003F39A4206D0074A01217B6801FA03F361
S214400B60C2F80031002318460C37BD465DF8047BBA
S214400B70704700BF00060E4080B483B000AFEFF36E
S214400B8010837B607B68002B0CBF01230023DBB205
S214400B903B6072B6BFF35F8F044B00221A703B680F
S214400BA018460C37BD465DF8047B70470A00402067
S214400BB080B483B000AF78607B68002B14BF0123FD
S214400BC00023DBB218460C37BD465DF8047B704701
S214400BD080B582B000AF78607868074B9847034688
S214400BE0002B05D0054B01221A70BFF35F8F62B60B
S214400BF000BF0837BD4680BDB10B40000A0040200C
S214400C0080B584B000AF1E4BFB601E4BBB60FA68DD
S214400C10BB689A420CD007E0BB681A1DBA60FA68F7
S214400C20111DF96012681A60BB68174A9342F3D3E5
S214400C30164BBB6004E0BB681A1DBA6000221A60FF
S214400C40BB68134A9342F6D3124BFB60124AFB68CA
S214400C5023F07F039360114B98477860104A104BFF
S214400C601B6843F470031360BFF34F8FBFF36F8F5F
S214400C7078680C4B98470C4B98470C4B9847FEE7C8
S214400C80A428400000004020F40C4020F40C4020F3
S214400C90A40D40200000400000ED00E0790B40002D
S214400CA088ED00E0D10B4000C12540001D124000F9
S214400CB080B400AFFEE7000080B400AF524B1B6B21
S214400CC003F00303012B14D0012B02D3022B38D0A0
S214400CD07AE04E4B5B6903F08003002B04D04C4B0C
S214400CE04FF400421A606FE0494B4FF4FA421A60E4
S214400CF06AE0454B1B6A03F08073002B03D0444BDD
S214400D00444A1A6060E0424B434A1A603E4B1B6AB4
S214400D1003F07003102B04D0202B08D0002B0ED0ED
S214400D200EE03B4B1B685B00394A136008E0384BCB
S214400D301A6813465B001344354A136000E000BF50
S214400D4042E0314B1B6A03F08073002B03D0304BDC
S214400D50304A1A601CE02E4B2F4A1A602A4B1B6AF8
S214400D6003F07003102B04D0202B08D0002B0ED09D
S214400D700EE0274B1B685B00254A136008E0244BB7
S214400D801A6813465B001344214A136000E000BF14
S214400D901D4B1B6B03F00303022B14D11A4B9B6AAB
S214400DA01B0CC3F30A030133194A126802FB03F310
S214400DB0174A1360144B9B6ADBB2154A1268B2FBA3
S214400DC0F3F3134A136000BF0F4B1B6B03F0700323
S214400DD0702B08D10E4B1B68104AA2FB03235B08FE
S214400DE00B4A13600AE0084B1B6B1B0903F0070312
S214400DF0074A126822FA03F3054A136000BFBD464D
S214400E005DF8047B704700BF00060E4010180E4089
S214400E100C004020001BB70000093D00ABAAAAAA60
S214400E2080B483B000AF78607B68194A934204D898
S214400E30184B4FF080621A6023E07B68164A934254
S214400E4003D8144B154A1A601BE07B68144A934239
S214400E5003D8104B134A1A6013E07B68124A934239
S214400E6003D80C4B114A1A600BE07B68104A934239
S214400E7004D8084B4FF004221A6002E0054B0D4A96
S214400E801A6000BF0C37BD465DF8047B704700BF54
S214400E90FF2C3101000C0E40FF5962020001000495
S214400EA0FF86930300020004FFB3C404000300045B
S214400EB0FFE0F5050005000480B483B000AF78601D
S214400EC07B68072B25D801A252F823F0ED0E400090
S214400ED0F30E4000F90E4000FF0E4000030F4000A6
S214400EE0070F40000B0F40000F0F40004FF4FA432F
S214400EF010E04FF400430DE04FF400430AE0084B87
S214400F0008E0084B06E0084B04E0074B02E0064BBF
S214400F1000E0002318460C37BD465DF8047B70475A
S214400F2000093D0000127A00001BB70080B500AFF4
S214400F300620054B9847024613469B0013449A00EA
S214400F401344184680BD00BFB90E400080B500AFC0
S214400F50024B98470346184680BD00BF2D0F400001
S214400F60F0B585B000AF78605F4B786898475F4CC7
S214400F7002460B46A04703460C461A4623465C4CA0
S214400F804FF000005B49A04703460C4618462146F2
S214400F90594C53A3D3E90023A04703460C461946B1
S214400FA02246564B0846114698470346FB604FF08C
S214400FB080415348534B9847D7ED037AF5EE407A35
S214400FC0F1EE10FA25D0504BF868984705460E4685
S214400FD04E4B984703464FF0000403FB06F105FBD3
S214400FE004F20A44A5FB03342244144648494FF011
S214400FF000025D1844EB020628463146454C464AF8
S2144010004FF00003A04703460C461846434B98470C
S21440101016E03E4B984703464FF000043C494FF0DD
S21440102000025D1844EB020628463146394C3A4ADF
S2144010304FF00003A04703460C461846374B9847E8
S2144010404FF080412E48364B9847D7ED037AF5EE61
S214401050407AF1EE10FA25D02B4BF86898470546B3
S2144010600E462A4B984703464FF0000403FB06F112
S21440107005FB04F20A44A5FB0334224414462449E3
S2144010804FF000025D1844EB020628463146214CDC
S214401090214A4FF00003A04703460C4618461F4B14
S2144010A0984716E0194B984703464FF000041849F6
S2144010B04FF000025D1844EB020628463146154CB8
S2144010C0154A4FF00003A04703460C461846134BFC
S2144010D0984700BF1437BD46F0BD00BFAFF3008051
S2144010E00000000080842E41B91C4000FD194000DD
S2144010F0B51F40000000F03F611D400085214000C4
S21440110000140E4055054000552240004D0F40004B
S214401110DF835A0025224000E0835A000100402029
S2144011207105400090B583B002AF324B9847324BC2
S2144011304FF400425A600A20304B98470C202F4B01
S21440114098470B202D4B98470023009300230122FD
S21440115001212B482B4CA04700230093002301225B
S2144011604FF080412848274CA04700230093002397
S214401170012208212548234CA04710201F4B9847A2
S2144011800C201E4B98470A201C4B984708224FF0CD
S21440119080511F481F4B984708224FF000411A487D
S2144011A01C4B984708224FF400211548194B984786
S2144011B001224FF080511648174B984701224FF0B6
S2144011C000411148144B984701224FF400210C4827
S2144011D0114B98470E48094B98470023009300232D
S2144011E000224FF080410A48064CA04700BF043713
S2144011F0BD4690BDAD04400050180E40F50A400074
S214401200000E0E405506400000120E4000100E40E4
S21440121000140E40D5054000290540002DE9F04F4A
S214401220ADF51C5D83B000AF504B9847002342F2AB
S21440123007723A441370002307F51C5213600023CC
S21440124042F2FC623A44136042F27C023A44CB23B8
S214401250C2F86836002342F2F8623A4413602AE045
S214401260434A42F2F8633B441B6852F8231042F26A
S2144012707C023A4442F2F8633B441B6842F823102F
S2144012803C4A42F2F8633B441B6852F8231042F251
S2144012907C023A4442F2F8633B441B68CC339B00E2
S2144012A01344596042F2F8633B441B68013342F2F0
S2144012B0F8623A44136042F27C033B44D3F8682613
S2144012C042F2F8633B441B689A42C9DC41F610225E
S2144012D03A441423C2F86836002342F2F4623A4491
S2144012E013602AE0244A42F2F4633B441B6852F8F7
S2144012F0231041F610223A4442F2F4633B441B6802
S21440130042F823101D4A42F2F4633B441B6852F8ED
S214401310231041F610223A4442F2F4633B441B68E1
S214401320CC339B001344596042F2F4633B441B6841
S214401330013342F2F4623A44136041F610233B44D0
S214401340D3F8682642F2F4633B441B689A42C9DCF1
S2144013500B4A42F208733B441A443823C2F86836B4
S214401360002342F2F0623A4413603AE0251140000E
S214401370100040203C0340202808402078084020A9
S2144013809CECFFFFB84A42F2F0633B441B6852F8BD
S2144013902310B64A42F208733B441A4442F2F063C2
S2144013A03B441B6842F82310B14A42F2F0633B4488
S2144013B01B6852F82310AD4A42F208733B441A4465
S2144013C042F2F0633B441B68CC339B0013445960A5
S2144013D042F2F0633B441B68013342F2F0623A4407
S2144013E01360A24B42F208723A441344D3F868267C
S2144013F042F2F0633B441B689A42C3DC9D4B42F288
S21440140008723A44134441F610223A4418461146AC
S21440141040F26C631A46984B9847964B42F20872D5
S2144014203A44134442F27C023A4403F26C6011465A
S21440143040F26C631A46904B98478E4A42F20873C5
S2144014403B441A44894B42F2087139440B4402F635
S214401450D840194640F26C631A46874B9847874BEC
S21440146042F208723A44134485491A460B4693E8BA
S214401470030082E80300834B42F208723A44134466
S21440148081491A460B4693E8030082E803004FF072
S214401490805200217D487E4B98470346002B56D10C
S2144014A007F51C531B68013B07F51C52136007F5F4
S2144014B01C531B68002B03DA012307F51C521360EC
S2144014C0002342F2FC623A441360724B984703464C
S2144014D019464FF000020B4614466001F864F86C5B
S2144014E040EAD360F8645B01BB64D7E912345B1A08
S2144014F064EB0204A0007864786C40EA93707864E9
S2144015009B003B64D7E910345B1844EB0204E200CE
S214401510FA63FA6B42EA5372FA63DB00BB63D7E9BD
S2144015200E341946224641F22B734FF00004CD1874
S21440153042EB040628463146574C41F22C724FF097
S2144015400003A04703460C461846544B98474FF4B2
S2144015500022002152484E4B98470346002B54D158
S21440156007F51C531B68013307F51C52136007F53B
S2144015701C531B68032B03D1002307F51C52136032
S214401580002342F2FC623A441360424B98470346BB
S21440159019464FF000020B46144660017863786B9C
S2144015A040EAD36078635B013B63D7E90C345B1A4F
S2144015B064EB0204A000F862F86A40EA9370F862AE
S2144015C09B00BB62D7E90A345B1844EB02044FEA3F
S2144015D0C40949EA53794FEAC30843464C4619467C
S2144015E0224641F22B734FF00004CD1842EB04061E
S2144015F028463146284C41F22C724FF00003A04753
S21440160003460C461846254B98474FF000420021AB
S21440161024481F4B98470346002B6DD142F2077370
S2144016203B441B78002B0CBF01230023DBB242F265
S21440163007723A441370174B9847034619464FF0C3
S21440164000020B46144660017862786A40EAD3602E
S21440165078625B013B62D7E908345B1A64EB0204AC
S214401660A000F861F8691FE0680640209CECFFFF88
S2144016704807402058D9FFFF1126400050D9FFFFA9
S2144016806428400048D9FFFF6C28400000140E40F4
S2144016908D0540004D0F40002522400001004020AF
S2144016A0000E0E4000120E4040EA9370F8619B0018
S2144016B0BB61D7E906345B1844EB02044FEAC40B1F
S2144016C04BEA537B4FEAC30A53465C4619462246CA
S2144016D041F22B734FF00004CD1842EB0406284627
S2144016E03146BA4C41F22C724FF00003A0470346F5
S2144016F00C461846B64B984742F207733B441B7855
S214401700002B3FF4C4AEB34942F208733B4419443D
S21440171007F51C531A6840F29B1303FB02F242F291
S214401720FC633B441B681344CC339B000B445B6810
S21440173042F2E8623A44136042F2E8633B441B6874
S214401740002B00F0CA80A34942F208733B44194478
S21440175007F51C531A6840F29B1303FB02F242F251
S214401760FC633B441B68134451F8234042F2FC633D
S2144017703B441B68581E974942F208733B44194441
S21440178007F51C531A6840F29B1303FB02F303440D
S21440179051F823309C4217DA8F4A42F208733B4492
S2144017A01A4407F51C531B6852F823008B4A42F232
S2144017B008733B441A4407F51C531B6852F8233001
S2144017C01946874B98473FE0824942F208733B44AC
S2144017D0194407F51C531A6840F29B1303FB02F2A8
S2144017E042F2FC633B441B68134451F8234042F2E8
S2144017F0FC633B441B68581E764942F208733B44E0
S214401800194407F51C531A6840F29B1303FB02F376
S214401810034451F823309C4216DD6F4A42F2087367
S2144018203B441A4407F51C531B6852F823006B4A86
S21440183042F208733B441A4407F51C531B6852F89F
S21440184023301946674B9847002342F2EC623A44ED
S214401850136038E05F4942F208733B44194407F589
S2144018601C531A6840F29B1303FB02F242F2FC63DD
S2144018703B441B68134451F82330002B1AD055497B
S21440188042F208733B44194407F51C531A6840F269
S2144018909B1303FB02F242F2FC633B441B68134477
S2144018A051F8233007EE903AF8EEE77A17EE900AB2
S2144018B04D4B984742F2EC633B441B68013342F27F
S2144018C0EC623A44136042F2EC633B441A6842F2DC
S2144018D0E8633B441B689A42BCDB3E4942F20873CD
S2144018E03B44194407F51C531A6840F26C6303FBEB
S2144018F002F30B4403F5CD631A6842F2FC633B44A3
S2144019001B689A4209DD42F2FC633B441B68013384
S21440191042F2FC623A441360B9E5002342F2FC62AC
S2144019203A44136007F51C531B68013307F51C52F5
S21440193013602E4B9847034619464FF000020B465D
S214401940144660017861786940EAD36078615B014B
S2144019503B61D7E904345B1A64EB0204A000F860EC
S214401960F86840EA9370F8609B00BB60D7E90234A1
S2144019705B1844EB0204E2007A607A6842EA5372EB
S2144019807A60DB003B60D7E900341946224641F2D4
S2144019902B734FF00004CD1842EB04062846314620
S2144019A00A4C41F22C724FF00003A04703460C4607
S2144019B01846074B984707F51C531B68032B7FF4C4
S2144019C066AD002307F51C52136060E525224000F3
S2144019D00100402058D9FFFF50D9FFFF48D9FFFFEC
S2144019E05505400071054000610F40004D0F400016
S2144019F081F0004102E000BF83F0004330B54FEA7B
S214401A0041044FEA430594EA050F08BF90EA020FE7
S214401A101FBF54EA000C55EA020C7FEA645C7FEA7A
S214401A20655C00F0E2804FEA5454D4EB5555B8BF9D
S214401A306D420CDD2C4480EA020281EA030382EA0E
S214401A40000083EA010180EA020281EA0303362DA0
S214401A5088BF30BD11F0004F4FEA01314FF4801C73
S214401A604CEA113102D0404261EB410113F0004F85
S214401A704FEA03334CEA133302D0524263EB43033C
S214401A8094EA050F00F0A780A4F10104D5F1200EDA
S214401A900DDB02FA0EFC22FA05F2801841F1000135
S214401AA003FA0EF2801843FA05F359410EE0A5F109
S214401AB020050EF1200E012A03FA0EFC28BF4CF03A
S214401AC0020C43FA05F3C01851EBE37101F00045F0
S214401AD007D54FF0000EDCF1000C7EEB00006EEBFD
S214401AE00101B1F5801F1BD3B1F5001F0CD3490887
S214401AF05FEA30004FEA3C0C04F101044FEA4452DE
S214401B0012F5800F80F09A80BCF1004F08BF5FEA64
S214401B10500C50F1000041EB045141EA050130BD44
S214401B205FEA4C0C404141EB010111F4801FA4F1E7
S214401B300104E9D191F0000F04BF01460020B1FA3C
S214401B4081F308BF2033A3F10B03B3F120020CDA74
S214401B500C3208DD02F1140CC2F10C0201FA0CF052
S214401B6021FA02F10CE002F11402D8BFC2F1200CB7
S214401B7001FA02F120FA0CFCDCBF41EA0C0190406D
S214401B80E41AA2BF01EB0451294330BD6FEA0404B6
S214401B901F3C1CDA0C340EDC04F11404C4F12002A1
S214401BA020FA04F001FA02F340EA030021FA04F3B3
S214401BB045EA030130BDC4F10C04C4F1200220FA0A
S214401BC002F001FA04F340EA0300294630BD21FA48
S214401BD004F0294630BD94F0000F83F4801306BF0E
S214401BE081F480110134013D4EE77FEA645C18BF02
S214401BF07FEA655C29D094EA050F08BF90EA020F99
S214401C0005D054EA000C04BF1946104630BD91EA90
S214401C10030F1EBF0021002030BD5FEA545C05D193
S214401C204000494128BF41F0004130BD14F58004D2
S214401C303CBF01F5801130BD01F0004545F0FE4146
S214401C4041F470014FF0000030BD7FEA645C1ABF7B
S214401C50194610467FEA655C1CBF0B46024650EAB2
S214401C60013406BF52EA033591EA030F41F40021DE
S214401C7030BD00BF90F0000F04BF0021704730B564
S214401C804FF4806404F132044FF000054FF0000139
S214401C9050E700BF90F0000F04BF0021704730B5FA
S214401CA04FF4806404F1320410F0004548BF4042CF
S214401CB04FF000013EE700BF42004FEAE2014FEA24
S214401CC031014FEA02701FBF12F07F4393F07F4FFF
S214401CD081F06051704792F0000F14BF93F07F4F31
S214401CE0704730B54FF4607401F0004521F0004174
S214401CF020E700BF50EA010208BF704730B54FF0FA
S214401D0000050AE050EA010208BF704730B511F0FE
S214401D10004502D5404261EB41014FF4806404F136
S214401D2032045FEA915C3FF4DCAE4FF003025FEAB8
S214401D30DC0C18BF03325FEADC0C18BF033202EB40
S214401D40DC02C2F1200300FA03FC20FA02F001FA9A
S214401D5003FE40EA0E0021FA02F11444C1E600BF39
S214401D6070B54FF0FF0C4CF4E06C1CEA11541DBFEC
S214401D701CEA135594EA0C0F95EA0C0F00F0DEF8B7
S214401D802C4481EA030621EA4C5123EA4C5350EA9C
S214401D90013518BF52EA033541F4801143F48013ED
S214401DA038D0A0FB02CE4FF00005E1FB02E506F07E
S214401DB00042E0FB03E54FF00006E1FB03569CF0D3
S214401DC0000F18BF4EF0010EA4F1FF04B6F5007FD9
S214401DD064F5407404D25FEA4E0E6D4146EB06064B
S214401DE042EAC62141EA55514FEAC52040EA5E50D4
S214401DF04FEACE2EB4F1FD0C88BFBCF5E06F1ED87E
S214401E00BEF1004F08BF5FEA500E50F1000041EBB4
S214401E10045170BD06F0004646EA010140EA020061
S214401E2081EA0301B4EB5C04C2BFD4EB0C0541EA83
S214401E30045170BD41F480114FF0000E013C00F398
S214401E40AB8014F1360FDEBF002001F0004170BDBC
S214401E50C4F10004203C35DA0C341BDC04F11404D5
S214401E60C4F1200500FA05F320FA04F001FA05F261
S214401E7040EA020001F0004221F0004110EBD3702E
S214401E8021FA04F642EB06015EEA430E08BF20EA5A
S214401E90D37070BDC4F10C04C4F1200500FA04F3FD
S214401EA020FA05F001FA04F240EA020001F000418F
S214401EB010EBD37041F100015EEA430E08BF20EA02
S214401EC0D37070BDC4F1200500FA05F24EEA020E4A
S214401ED020FA04F301FA05F243EA020321FA04F079
S214401EE001F0004121FA04F220EA020000EBD37030
S214401EF05EEA430E08BF20EAD37070BD94F0000F30
S214401F000FD101F00046400041EB010111F4801F63
S214401F1008BF013CF7D041EA060195F0000F18BF14
S214401F20704703F00046520043EB030313F4801F50
S214401F3008BF013DF7D043EA0603704794EA0C0F0A
S214401F400CEA135518BF95EA0C0F0CD050EA410620
S214401F5018BF52EA4306D1D181EA030101F000419D
S214401F604FF0000070BD50EA410606BF10461946C5
S214401F7052EA430619D094EA0C0F02D150EA0136D1
S214401F8013D195EA0C0F05D152EA03361CBF104612
S214401F9019460AD181EA030101F0004141F0FE41B1
S214401FA041F470014FF0000070BD41F0FE4141F435
S214401FB0780170BD70B54FF0FF0C4CF4E06C1CEA35
S214401FC011541DBF1CEA135594EA0C0F95EA0C0FEA
S214401FD000F0A7F8A4EB050481EA030E52EA0335A5
S214401FE04FEA013100F088804FEA03334FF08055C6
S214401FF045EA131343EA12634FEA022245EA1115F3
S21440200045EA10654FEA00260EF000419D4208BFA3
S214402010964244F1FD0404F5407402D25B084FEA50
S2144020203202B61A65EB03055B084FEA32024FF4FC
S21440203080104FF4002CB6EB020E75EB030E22BF59
S214402040B61A754640EA0C005B084FEA3202B6EB19
S214402050020E75EB030E22BFB61A754640EA5C00C8
S2144020605B084FEA3202B6EB020E75EB030E22BF58
S214402070B61A754640EA9C005B084FEA3202B6EB59
S214402080020E75EB030E22BFB61A754640EADC0018
S21440209055EA060E18D04FEA051545EA16754FEA7A
S2144020A006164FEAC30343EA52734FEAC2025FEA98
S2144020B01C1CC0D111F4801F0BD141EA00014FF027
S2144020C000004FF0004CB6E711F4801F04BF0143F8
S2144020D00020B4F1FD0C88BFBCF5E06F3FF6AFAE14
S2144020E0B5EB030C04BFB6EB020C5FEA500C50F1A4
S2144020F0000041EB045170BD0EF0004E4EEA113127
S21440210014EB5C04C2BFD4EB0C0541EA045170BD2D
S21440211041F480114FF0000E013C90E645EA060E71
S2144021208DE60CEA135594EA0C0F08BF95EA0C0F9F
S2144021303FF43BAF94EA0C0F0AD150EA01347FF4E7
S21440214034AF95EA0C0F7FF425AF104619462CE7BE
S21440215095EA0C0F06D152EA03353FF4FDAE104621
S214402160194622E750EA410618BF52EA43067FF472
S214402170C5AE50EA41047FF40DAF52EA43057FF402
S214402180EBAE12E74FEA4102B2F1E04324BFB3F5AB
S214402190001CDCF1FE5C0DD901F0004C4FEAC00299
S2144021A04CEA5070B2F1004F40EB830008BF20F07D
S2144021B00100704711F0804F21D113F13872BCBF37
S2144021C001F00040704741F480114FEA5252C2F18C
S2144021D01802C2F1200C10FA0CF320FA02F018BFD5
S2144021E040F001004FEAC1234FEAD32303FA0CFC28
S2144021F040EA0C0023FA02F34FEA4303CCE77FEAB7
S214402200625307D150EA01331EBF4FF0FE4040F400
S2144022104000704701F0004040F0FE4040F40000AF
S214402220704700BF53B94AB9002908BF00281CBFF1
S2144022304FF0FF314FF0FF3000F0A0B9ADF1080C81
S2144022406DE904CE00F02CF8DDF804E0DDE9022369
S21440225004B07047D0B5FFF72FFD00220E4B064660
S2144022600F46FFF77DFD00F08BF90446FFF702FDB1
S21440227000220A4BFFF774FD02460B4630463946AD
S214402280FFF7BAFB00F07CF92346002242EA000240
S21440229010461946D0BD00BF0000F03D0000F0419A
S2144022A02DE9F0478C460D460446089E002B51D13A
S2144022B08A4217466DD9B2FA82FEBEF1000F0BD0A5
S2144022C0CEF1200C01FA0EF520FA0CFC02FA0EF7BD
S2144022D04CEA050C00FA0EF44FEA174A250CBCFBF4
S2144022E0FAF81FFA87F90AFB18CC45EA0C4508FBB2
S2144022F009F3AB420AD9ED1908F1FF3280F0238189
S214402300AB4240F22081A8F102083D44ED1AA4B247
S214402310B5FBFAF00AFB105544EA054400FB09F900
S214402320A14509D9E41900F1FF3380F00A81A1459F
S21440233040F2078102383C44A4EB090440EA0840D6
S2144023400021002E61D024FA0EF40023346073601E
S214402350BDE8F0878B4207D9002E54D0002186E88E
S21440236021000846BDE8F087B3FA83F1002940F023
S2144023708E80AB4202D3824200F2FA80841A65EB2A
S21440238003050120AC46002E3FD086E81010BDE87D
S214402390F08712B90127B7FBF2F7B7FA87FEBEF10E
S2144023A0000F34D1EB1B3A0C1FFA87FC0121B3FB1C
S2144023B0F2F8250C02FB183345EA03450CFB08F3FC
S2144023C0AB4207D9ED1908F1FF3002D2AB4200F21A
S2144023D0D1808046ED1AA3B2B5FBF2F002FB105551
S2144023E043EA05440CFB00FCA44507D9E41900F178
S2144023F0FF3302D2A44500F2B8801846A4EB0C0482
S21440240040EA08409DE731463046BDE8F087CEF1C9
S214402410200405FA0EF307FA0EF720FA04F83A0CF1
S21440242025FA04F448EA0308B4FBF2F14FEA1845EB
S21440243002FB11441FFA87FC45EA044501FB0CF3F6
S214402440AB4200FA0EF409D9ED1901F1FF3080F0E5
S2144024508A80AB4240F2878002393D44EB1A1FFA2D
S21440246088F5B3FBF2F002FB103345EA034500FB68
S2144024700CF3AB4207D9ED1900F1FF386FD2AB42EF
S2144024806DD902383D44EB1A40EA01418FE7C1F16D
S214402490200722FA07F88B4005FA01F448EA0303BE
S2144024A020FA07FE4FEA134CFD404EEA040EB5FBF9
S2144024B0FCF94FEA1E440CFB19551FFA83F844EA10
S2144024C0054509FB08F4AC4202FA01F200FA01FAAB
S2144024D008D9ED1809F1FF3043D2AC4241D9A9F1F1
S2144024E002091D442D1B1FFA8EFEB5FBFCF00CFBAB
S2144024F010554EEA054400FB08F8A04507D9E418F5
S21440250000F1FF3529D2A04527D902381C4440EABD
S2144025100940A4EB0804A0FB02894C45C6464D463C
S21440252015D312D056B1BAEB0E0364EB050404FA89
S21440253007F7CB401F43CC40376074600021BDE8AE
S214402540F0871846F8E69046E0E6C245EAD2B8EB91
S214402550020E69EB03050138E4E72846D7E7404614
S21440256091E78146BEE7014678E702383C4445E7B6
S214402570084608E7A8F102083D442BE7704700BF2D
S2144025804A0011D212F5001211D20DD56FF47873AD
S214402590B3EB62520ED44FEAC12343F0004343EA02
S2144025A0505323FA02F070474FF00000704750EA4D
S2144025B0013002D14FF0FF3070474FF000007047B7
S2144025C070B50F4E0F4D761BB61018BF002405D0C1
S2144025D0013455F8043B9847A642F9D10A4E0B4DB4
S2144025E0761B00F049F9B61018BF002406D0013417
S2144025F055F8043B9847A642F9D170BD70BD00BF60
S21440260084284000842840008C28400084284000CD
S214402610844641EA000313F003036DD1403A41D3A8
S21440262051F8043B40F8043B51F8043B40F8043B67
S21440263051F8043B40F8043B51F8043B40F8043B57
S21440264051F8043B40F8043B51F8043B40F8043B47
S21440265051F8043B40F8043B51F8043B40F8043B37
S21440266051F8043B40F8043B51F8043B40F8043B27
S21440267051F8043B40F8043B51F8043B40F8043B17
S21440268051F8043B40F8043B51F8043B40F8043B07
S21440269051F8043B40F8043B51F8043B40F8043BF7
S2144026A0403ABDD2303211D351F8043B40F8043B97
S2144026B051F8043B40F8043B51F8043B40F8043BD7
S2144026C051F8043B40F8043B103AEDD20C3205D3A7
S2144026D051F8043B40F8043B043AF9D2043208D09F
S2144026E0D2071CBF11F8013B00F8013B01D30B8811
S2144026F003806046704700BF082A13D38B078DD0EF
S21440270010F003038AD0C3F10403D21ADB071CBFC0
S21440271011F8013B00F8013B80D331F8023B20F82A
S214402720023B7BE7043AD9D3013A11F8013B00F863
S214402730013BF9D20B7803704B7843708B788370EB
S21440274060467047024B13B1024800F005B8704728
S2144027500000000065274000002301461A46184640
S21440276000F01EB838B50A4C0A4D641BA4100AD0B7
S21440277004F18043013B05EB8305013C55F80439E1
S2144027809847002CF9D1BDE8384000F07FB800BF2C
S2144027909C28400098284000704700BF704700BF04
S2144027A02DE9F8432C4D0646286898460F46914634
S2144027B0FFF7F2FF294B1C68D4F84831002B3ED077
S2144027C05A681F2A1CDC02F1010E76B103EB820127
S2144027D00124C1F88890D3F8880194402043022E03
S2144027E0C3F88801C1F8088123D00232C3F804E058
S2144027F0286843F82270FFF7D1FF0020BDE8F88331
S214402800174B0BB34FF4C870AFF300800346D8B1F4
S214402810D4F848210260002141600A46C4F84801C5
S2144028204FF0010EC0F88811C0F88C11002EDCD095
S214402830CCE7D3F88C110C43C3F88C41D5E704F5AC
S214402840A673C4F84831BBE72868FFF7A7FF4FF0E8
S214402850FF30BDE8F88300BFF00C402074284000ED
S21440286000000000000E0E4000120E400100000066
S21440287000000040C8084020F8B500BFF8BC08BCBF
S2144028809E4670474527400065014000F8B500BFAA
S210402890F8BC08BC9E4670474101400062
S20C40289C04FAFF7F0100000072
S2144028A4BFF35F8F0138FBD17047010000093D003C
S2144028B44A01000088010000B8010000B801000089
S2144028C400000000B8010000EE0100000B0200000A
S2144028D40B020000000000000B0200004B02000048
S2144028E4EE010000EE01000000000000B801000008
S2144028F488010000B8010000000000004A01000002
S21440290488010000B8010000B80100000000000083
S214402914B8010000EE0100000B0200000B020000AC
S214402924000000000B0200004B020000EE01000015
S214402934EE01000000000000B8010000880100001D
S214402944B8010000000000004A01000088010000B1
S214402954B8010000B801000000000000B801000003
S2144029640B0200004B0200004B0200000000000077
S2144029744B02000093020000BA020000BA020000B4
S21440298400000000930200004B0200009302000087
S214402994B801000000000000B8010000EE0100008D
S2144029A40B0200000B020000000000004B02000077
S2144029B493020000B801000000000000B8010000C7
S2144029C40B020000EE010000EE01000000000000D3
S2144029D40B020000B8010000EE01000000000000F9
S2144029E4B8010000B8010000B8010000EE01000084
S2144029F40B0200000B020000000000000B02000067
S214402A044B020000EE010000EE0100000000000052
S214402A14B801000088010000B80100000000000072
S214402A244A01000088010000B8010000B801000017
S214402A3400000000B8010000EE0100000B02000098
S214402A440B020000000000000B0200004B020000D6
S214402A54EE010000EE01000000000000B801000096
S214402A6488010000B8010000000000004A01000090
S214402A7488010000B8010000B80100000000000012
S214402A84B80100000B0200004B0200004B0200009D
S214402A94000000004B02000093020000BA0200004F
S214402AA4BA02000000000000930200004B0200003F
S214402AB493020000B801000000000000B8010000C6
S214402AC4EE0100000B0200000B02000000000000B4
S214402AD44B02000093020000B80100000000000012
S214402AE4B80100000B020000EE010000EE010000F9
S214402AF4000000000B020000B8010000EE010000D8
S214402B0400000000930200000000000000000000E7
S214402B14BA0200000000000000000000930200001B
S214402B2493020000000000001003000000000000B4
S214402B34930200004B02000000000000000000006A
S214402B444B02000000000000000000000B020000E2
S214402B540000000000000000EE0100000B02000030
S214402B6400000000EE01000000000000B801000074
S214402B74930200000000000000000000BA020000BB
S214402B8400000000000000009302000093020000D2
S214402B940000000010030000000000009302000044
S214402BA44B02000000000000000000004B02000042
S214402BB400000000000000000B02000000000000BF
S214402BC400000000EE0100000B02000000000000C0
S214402BD4EE01000000000000B80100007D00000087
S214402BE47D000000FA0000007D0000007D0000002B
S214402BF47D0000007D000000FA0000007D0000001B
S214402C047D0000007D0000007D000000FA0000000A
S214402C147D0000007D0000007D0000007D00000077
S214402C24770100007D0000007D0000007D0000006C
S214402C34FA0000007D0000007D0000007D000000DA
S214402C447D000000FA0000007D0000007D000000CA
S214402C547D0000007D000000FA0000007D000000BA
S214402C647D0000007D0000007D000000770100002C
S214402C747D0000007D0000007D000000FA0000009A
S214402C847D0000007D0000007D0000007D00000007
S214402C94FA0000007D0000007D0000007D0000007A
S214402CA47D000000FA0000007D0000007D0000006A
S214402CB47D0000007D0000007D000000FA0000005A
S214402CC47D0000007D0000007D000000FA0000004A
S214402CD47D0000007D000000FA0000007D0000003A
S214402CE4FA0000007D0000007D0000007D0000002A
S214402CF4FA0000007D0000007D0000007D0000001A
S214402D047D0000007701000077010000FA00000013
S214402D147D0000007D0000007D000000FA000000F9
S214402D247D0000007D0000007D0000007D00000066
S214402D34FA0000007D0000007D0000007D000000D9
S214402D447D000000770100007D0000007D0000004B
S214402D547D000000FA0000007D0000007D000000B9
S214402D647D0000007D000000FA0000007D000000A9
S214402D747D0000007D0000007D000000FA00000099
S214402D847D0000007D0000007D0000007D00000006
S214402D94770100007D0000007D0000007D000000FB
S214402DA4FA0000007D0000007D0000007D00000069
S214402DB47D000000FA0000007D0000007D00000059
S214402DC47D0000007D000000FA0000007D00000049
S214402DD47D0000007D0000007D0000007D000000B6
S214402DE4FA0000007D0000007D0000007D00000029
S214402DF4FA0000007D0000007D000000FA0000009C
S214402E047D000000FA0000007D0000007D00000008
S214402E147D000000FA0000007D0000007D000000F8
S214402E247D0000007D00000077010000770100006F
S214402E34FA0000007D00000077010000FA00000060
S214402E447D000000770100007D0000007D0000004A
S214402E547D0000007D0000007D0000007D00000035
S214402E647D0000007D00000077010000FA000000AD
S214402E747D00000077010000FA0000007D0000009D
S214402E84770100007D0000007D0000007D0000000A
S214402E947D0000007D000000F4010000FA00000000
S214402EA47D00000077010000FA0000007D0000006D
S214402EB4770100007D0000007D0000007D000000DA
S214402EC47D0000007D0000007D0000007D000000C5
S214402ED47D00000077010000FA0000007D0000003D
S214402EE477010000FA0000007D0000007701000032
S214402EF47D0000007D0000007D0000007D00000095
S214402F047D000000F4010000060100000B020000F2
S214402F14DC000000B8010000E9000000D201000017
S214402F240000000000000000060100000B02000044
S214402F34DC000000B8010000E9000000D2010000F7
S214402F440000000000000000AF0000005D0100002B
S214402F5493000000260100009C000000370100009A
S214402F640000000000000000AF0000005D0100000B
S214402F7493000000260100009C000000370100007A
S214402F8400000000000000003701000015010000AA
S214402F94260100001501000037010000370100003B
S214402FA4D0000000C4000000150100000601000027
S214402FB4720100005D010000A5000000D20100007F
S214402FC4B80100009F01000037010000F700000030
S214402FD4E9000000DC000000D00000000000000013
S214402FE400000000000000005300000053000000F2
S214402FF4530000005300000053000000530000003C
S214403004A60000004D0100005300000053000000DD
S214403014530000005300000053000000530000001B
S214403024A60000004D0100005300000053000000BD
S21440303453000000530000005300000053000000FB
S214403044A60000004D01000053000000530000009D
S21440305453000000530000005300000053000000DB
S214403064A6000000A600000037000000370000005D
S21440307437000000A6000000A6000000A6000000DE
S214403084A6000000A6000000A600000037000000CE
S214403094370000003700000037000000370000000B
S2144030A43700000064000000640000006400000074
S2144030B46400000064000000640000004D0100004D
S2144030C44D0100004D010000B8010000B8010000A9
S2144030D4B80100005D0100000B020000B8010000CA
S2144030E45D0100000B020000B80100000000000073
S2144030F4930200009302000093020000BA0200000C
S2144031040B0200009F0100005D0100000B0200005E
S214403114B801000000000000F4010000F4010000C3
S214403124F40100005E01000096000000F401000077
S2144031345E010000960000008A020000F4010000D0
S214403144F4010000F4010000F40100005E010000F8
S21440315496000000F40100005E01000096000000A6
S2144031648A020000F401000000000000B40B402076
S2144031741C0C4020840C402000000000000000008E
S21440318400000000000000000000000000000000F6
S21440319400000000000000000000000000000000E6
S2144031A400000000000000000000000000000000D6
S2144031B400000000000000000000000000000000C6
S2144031C400000000000000000000000000000000B6
S2144031D400000000000000000000000000000000A6
S2144031E40000000000000000000000000000000096
S2144031F40000000000000000000000000000000086
S2144032040000000000000000000000000000000075
S21440321401000000000000000E33CDAB34126DE612
S214403224ECDE05000B00000000000000000000007B
S2144032340000000000000000000000000000000045
S2144032440000000000000000000000000000000035
S2144032540000000000000000000000000000000025
S2144032640000000000000000000000000000000015
S208403594800D402001
S804400C01AE
